{
  "contractName": "Ico",
  "abi": [
    {
      "inputs": [
        {
          "name": "_tokenReceived",
          "type": "address"
        },
        {
          "name": "_tokenGiven",
          "type": "address"
        }
      ],
      "payable": false,
      "stateMutability": "nonpayable",
      "type": "constructor"
    },
    {
      "constant": false,
      "inputs": [
        {
          "name": "_from",
          "type": "address"
        },
        {
          "name": "_value",
          "type": "uint256"
        },
        {
          "name": "data",
          "type": "bytes"
        }
      ],
      "name": "tokenFallback",
      "outputs": [],
      "payable": false,
      "stateMutability": "nonpayable",
      "type": "function"
    }
  ],
  "bytecode": "0x608060405266038d7ea4c6800060015534801561001b57600080fd5b5060405160408061046f8339810180604052810190808051906020019092919080519060200190929190505050336000806101000a81548173ffffffffffffffffffffffffffffffffffffffff021916908373ffffffffffffffffffffffffffffffffffffffff16021790555081600260006101000a81548173ffffffffffffffffffffffffffffffffffffffff021916908373ffffffffffffffffffffffffffffffffffffffff16021790555080600360006101000a81548173ffffffffffffffffffffffffffffffffffffffff021916908373ffffffffffffffffffffffffffffffffffffffff16021790555050506103548061011b6000396000f300608060405260043610610041576000357c0100000000000000000000000000000000000000000000000000000000900463ffffffff168063c0ee0b8a14610046575b600080fd5b34801561005257600080fd5b506100d7600480360381019080803573ffffffffffffffffffffffffffffffffffffffff16906020019092919080359060200190929190803590602001908201803590602001908080601f01602080910402602001604051908101604052809392919081815260200183838082843782019150505050505091929192905050506100d9565b005b6000600154838115156100e857fe5b049050600260009054906101000a900473ffffffffffffffffffffffffffffffffffffffff1673ffffffffffffffffffffffffffffffffffffffff1663a9059cbb6000809054906101000a900473ffffffffffffffffffffffffffffffffffffffff16856040518363ffffffff167c0100000000000000000000000000000000000000000000000000000000028152600401808373ffffffffffffffffffffffffffffffffffffffff1673ffffffffffffffffffffffffffffffffffffffff16815260200182815260200192505050602060405180830381600087803b1580156101d157600080fd5b505af11580156101e5573d6000803e3d6000fd5b505050506040513d60208110156101fb57600080fd5b8101908080519060200190929190505050151561021757600080fd5b600360009054906101000a900473ffffffffffffffffffffffffffffffffffffffff1673ffffffffffffffffffffffffffffffffffffffff1663a9059cbb85836040518363ffffffff167c0100000000000000000000000000000000000000000000000000000000028152600401808373ffffffffffffffffffffffffffffffffffffffff1673ffffffffffffffffffffffffffffffffffffffff16815260200182815260200192505050602060405180830381600087803b1580156102dc57600080fd5b505af11580156102f0573d6000803e3d6000fd5b505050506040513d602081101561030657600080fd5b8101908080519060200190929190505050151561032257600080fd5b505050505600a165627a7a7230582027f9ea48f480022b116e15b7c8daf3d22e96fcbe52503a60916af3b56a2225bb0029",
  "source": "pragma solidity ^0.4.21;\r\n \r\n \r\nimport \"./EIP20Interface.sol\";\r\n \r\n \r\ncontract Ico {\r\n   \r\n    address receiver;\r\n    uint rate = 1 finney;\r\n    EIP20Interface tokenReceived;\r\n    EIP20Interface tokenGiven;\r\n   \r\n    constructor(address _tokenReceived, address _tokenGiven) public {\r\n        receiver = msg.sender;\r\n        tokenReceived = EIP20Interface(_tokenReceived);\r\n        tokenGiven = EIP20Interface(_tokenGiven);\r\n    }\r\n   \r\n   function tokenFallback( address _from, uint _value, bytes data) public{\r\n       uint tokenEarned = _value / rate;\r\n       require(tokenReceived.transfer( receiver, _value));\r\n       require(tokenGiven.transfer( _from ,tokenEarned));\r\n    }\r\n } ",
  "sourcePath": "D:\\Reynald\\Documents\\Cours\\2017-2018 M2\\tpTokenERC22\\contracts\\Ico.sol",
  "compiler": {
    "name": "solc",
    "version": "0.4.23+commit.124ca40d.Emscripten.clang"
  },
  "schemaVersion": "2.0.0",
  "updatedAt": "2018-05-26T10:28:49.596Z"
}